
SPITest.elf:     file format elf32-avr

Sections:
Idx Name          Size      VMA       LMA       File off  Algn
  0 .data         00000000  00802800  00802800  0000078d  2**0
                  CONTENTS, ALLOC, LOAD, DATA
  1 .text         000006cc  00000000  00000000  00000094  2**1
                  CONTENTS, ALLOC, LOAD, READONLY, CODE
  2 .rodata       0000002d  000046cc  000006cc  00000760  2**0
                  CONTENTS, ALLOC, LOAD, READONLY, DATA
  3 .bss          00000005  00802800  00802800  0000078d  2**0
                  ALLOC
  4 .comment      00000030  00000000  00000000  0000078d  2**0
                  CONTENTS, READONLY
  5 .note.gnu.avr.deviceinfo 00000040  00000000  00000000  000007c0  2**2
                  CONTENTS, READONLY
  6 .debug_aranges 000001c8  00000000  00000000  00000800  2**0
                  CONTENTS, READONLY, DEBUGGING
  7 .debug_info   00004ab1  00000000  00000000  000009c8  2**0
                  CONTENTS, READONLY, DEBUGGING
  8 .debug_abbrev 00002cb2  00000000  00000000  00005479  2**0
                  CONTENTS, READONLY, DEBUGGING
  9 .debug_line   000010fb  00000000  00000000  0000812b  2**0
                  CONTENTS, READONLY, DEBUGGING
 10 .debug_frame  000003a8  00000000  00000000  00009228  2**2
                  CONTENTS, READONLY, DEBUGGING
 11 .debug_str    0000177d  00000000  00000000  000095d0  2**0
                  CONTENTS, READONLY, DEBUGGING
 12 .debug_loc    00000b62  00000000  00000000  0000ad4d  2**0
                  CONTENTS, READONLY, DEBUGGING
 13 .debug_ranges 00000128  00000000  00000000  0000b8af  2**0
                  CONTENTS, READONLY, DEBUGGING

Disassembly of section .text:

00000000 <__vectors>:
   0:	0c 94 50 00 	jmp	0xa0	; 0xa0 <__ctors_end>
   4:	0c 94 6d 00 	jmp	0xda	; 0xda <__bad_interrupt>
   8:	0c 94 6d 00 	jmp	0xda	; 0xda <__bad_interrupt>
   c:	0c 94 6d 00 	jmp	0xda	; 0xda <__bad_interrupt>
  10:	0c 94 6d 00 	jmp	0xda	; 0xda <__bad_interrupt>
  14:	0c 94 6d 00 	jmp	0xda	; 0xda <__bad_interrupt>
  18:	0c 94 6d 00 	jmp	0xda	; 0xda <__bad_interrupt>
  1c:	0c 94 5c 02 	jmp	0x4b8	; 0x4b8 <__vector_7>
  20:	0c 94 6d 00 	jmp	0xda	; 0xda <__bad_interrupt>
  24:	0c 94 6d 00 	jmp	0xda	; 0xda <__bad_interrupt>
  28:	0c 94 6d 00 	jmp	0xda	; 0xda <__bad_interrupt>
  2c:	0c 94 6d 00 	jmp	0xda	; 0xda <__bad_interrupt>
  30:	0c 94 6d 00 	jmp	0xda	; 0xda <__bad_interrupt>
  34:	0c 94 6d 00 	jmp	0xda	; 0xda <__bad_interrupt>
  38:	0c 94 6d 00 	jmp	0xda	; 0xda <__bad_interrupt>
  3c:	0c 94 6d 00 	jmp	0xda	; 0xda <__bad_interrupt>
  40:	0c 94 6d 00 	jmp	0xda	; 0xda <__bad_interrupt>
  44:	0c 94 6d 00 	jmp	0xda	; 0xda <__bad_interrupt>
  48:	0c 94 6d 00 	jmp	0xda	; 0xda <__bad_interrupt>
  4c:	0c 94 6d 00 	jmp	0xda	; 0xda <__bad_interrupt>
  50:	0c 94 6d 00 	jmp	0xda	; 0xda <__bad_interrupt>
  54:	0c 94 6d 00 	jmp	0xda	; 0xda <__bad_interrupt>
  58:	0c 94 6d 00 	jmp	0xda	; 0xda <__bad_interrupt>
  5c:	0c 94 6d 00 	jmp	0xda	; 0xda <__bad_interrupt>
  60:	0c 94 6d 00 	jmp	0xda	; 0xda <__bad_interrupt>
  64:	0c 94 6d 00 	jmp	0xda	; 0xda <__bad_interrupt>
  68:	0c 94 6d 00 	jmp	0xda	; 0xda <__bad_interrupt>
  6c:	0c 94 6d 00 	jmp	0xda	; 0xda <__bad_interrupt>
  70:	0c 94 6d 00 	jmp	0xda	; 0xda <__bad_interrupt>
  74:	0c 94 6d 00 	jmp	0xda	; 0xda <__bad_interrupt>
  78:	0c 94 6d 00 	jmp	0xda	; 0xda <__bad_interrupt>
  7c:	0c 94 6d 00 	jmp	0xda	; 0xda <__bad_interrupt>
  80:	0c 94 6d 00 	jmp	0xda	; 0xda <__bad_interrupt>
  84:	0c 94 6d 00 	jmp	0xda	; 0xda <__bad_interrupt>
  88:	0c 94 6d 00 	jmp	0xda	; 0xda <__bad_interrupt>
  8c:	0c 94 6d 00 	jmp	0xda	; 0xda <__bad_interrupt>
  90:	0c 94 6d 00 	jmp	0xda	; 0xda <__bad_interrupt>
  94:	0c 94 6d 00 	jmp	0xda	; 0xda <__bad_interrupt>
  98:	0c 94 6d 00 	jmp	0xda	; 0xda <__bad_interrupt>
  9c:	0c 94 6d 00 	jmp	0xda	; 0xda <__bad_interrupt>

000000a0 <__ctors_end>:
  a0:	11 24       	eor	r1, r1
  a2:	1f be       	out	0x3f, r1	; 63
  a4:	cf ef       	ldi	r28, 0xFF	; 255
  a6:	cd bf       	out	0x3d, r28	; 61
  a8:	df e3       	ldi	r29, 0x3F	; 63
  aa:	de bf       	out	0x3e, r29	; 62

000000ac <__do_copy_data>:
  ac:	18 e2       	ldi	r17, 0x28	; 40
  ae:	a0 e0       	ldi	r26, 0x00	; 0
  b0:	b8 e2       	ldi	r27, 0x28	; 40
  b2:	e9 ef       	ldi	r30, 0xF9	; 249
  b4:	f6 e0       	ldi	r31, 0x06	; 6
  b6:	02 c0       	rjmp	.+4      	; 0xbc <__do_copy_data+0x10>
  b8:	05 90       	lpm	r0, Z+
  ba:	0d 92       	st	X+, r0
  bc:	a0 30       	cpi	r26, 0x00	; 0
  be:	b1 07       	cpc	r27, r17
  c0:	d9 f7       	brne	.-10     	; 0xb8 <__do_copy_data+0xc>

000000c2 <__do_clear_bss>:
  c2:	28 e2       	ldi	r18, 0x28	; 40
  c4:	a0 e0       	ldi	r26, 0x00	; 0
  c6:	b8 e2       	ldi	r27, 0x28	; 40
  c8:	01 c0       	rjmp	.+2      	; 0xcc <.do_clear_bss_start>

000000ca <.do_clear_bss_loop>:
  ca:	1d 92       	st	X+, r1

000000cc <.do_clear_bss_start>:
  cc:	a5 30       	cpi	r26, 0x05	; 5
  ce:	b2 07       	cpc	r27, r18
  d0:	e1 f7       	brne	.-8      	; 0xca <.do_clear_bss_loop>
  d2:	0e 94 f6 01 	call	0x3ec	; 0x3ec <main>
  d6:	0c 94 64 03 	jmp	0x6c8	; 0x6c8 <_exit>

000000da <__bad_interrupt>:
  da:	0c 94 f3 02 	jmp	0x5e6	; 0x5e6 <__vector_default>

000000de <atmel_start_init>:

/**
 * Initializes MCU, drivers and middleware in the project
 **/
void atmel_start_init(void)
{
  de:	ef 92       	push	r14
  e0:	ff 92       	push	r15
  e2:	0f 93       	push	r16
  e4:	1f 93       	push	r17
  e6:	cf 93       	push	r28
  e8:	df 93       	push	r29
	PORTA_DIRSET= PIN7_bm;  //SS init   output
  ea:	e1 e0       	ldi	r30, 0x01	; 1
  ec:	f4 e0       	ldi	r31, 0x04	; 4
  ee:	00 e8       	ldi	r16, 0x80	; 128
  f0:	00 83       	st	Z, r16
	PORTA_DIRSET= PIN6_bm;  // SCK init  output
  f2:	c0 e4       	ldi	r28, 0x40	; 64
  f4:	c0 83       	st	Z, r28
	PORTA_DIRCLR= PIN5_bm;  // MISO init input
  f6:	d0 e2       	ldi	r29, 0x20	; 32
  f8:	d0 93 02 04 	sts	0x0402, r29	; 0x800402 <__TEXT_REGION_LENGTH__+0x7f4402>
	PORTA_DIRSET= PIN4_bm;  // MOSI init  output
  fc:	68 94       	set
  fe:	ff 24       	eor	r15, r15
 100:	f4 f8       	bld	r15, 4
 102:	f0 82       	st	Z, r15
	
	SPI0.CTRLA ^= SPI_ENABLE_bm;
 104:	e0 ec       	ldi	r30, 0xC0	; 192
 106:	f8 e0       	ldi	r31, 0x08	; 8
 108:	80 81       	ld	r24, Z
 10a:	11 e0       	ldi	r17, 0x01	; 1
 10c:	81 27       	eor	r24, r17
 10e:	80 83       	st	Z, r24
	SPI0_CTRLA ^= SPI_MASTER_bm;
 110:	80 81       	ld	r24, Z
 112:	8d 27       	eor	r24, r29
 114:	80 83       	st	Z, r24
	SPI0_CTRLA ^= SPI_DORD_bm;    // LSB first 
 116:	80 81       	ld	r24, Z
 118:	8c 27       	eor	r24, r28
 11a:	80 83       	st	Z, r24
	SPI0_CTRLB = SPI_SSD_bm;
 11c:	68 94       	set
 11e:	ee 24       	eor	r14, r14
 120:	e2 f8       	bld	r14, 2
 122:	e0 92 c1 08 	sts	0x08C1, r14	; 0x8008c1 <__TEXT_REGION_LENGTH__+0x7f48c1>
	
	uart_init();
 126:	0e 94 ed 00 	call	0x1da	; 0x1da <uart_init>
	
	
	// setup timed interrupts  for 1s
	TCA0.SINGLE.CTRLA= 0x0A;          //DIV64
 12a:	e0 e0       	ldi	r30, 0x00	; 0
 12c:	fa e0       	ldi	r31, 0x0A	; 10
 12e:	8a e0       	ldi	r24, 0x0A	; 10
 130:	80 83       	st	Z, r24
	TCA0.SINGLE.INTCTRL= RTC_OVF_bm;        
 132:	12 87       	std	Z+10, r17	; 0x0a
	TCA0.SINGLE.PER = 2605;
 134:	8d e2       	ldi	r24, 0x2D	; 45
 136:	9a e0       	ldi	r25, 0x0A	; 10
 138:	86 a3       	std	Z+38, r24	; 0x26
 13a:	97 a3       	std	Z+39, r25	; 0x27
	
	//set output rows  on logic 0 
	PORTD.DIRSET=PIN4_bm;
 13c:	e0 e6       	ldi	r30, 0x60	; 96
 13e:	f4 e0       	ldi	r31, 0x04	; 4
 140:	f1 82       	std	Z+1, r15	; 0x01
	PORTD.DIRSET=PIN5_bm;
 142:	d1 83       	std	Z+1, r29	; 0x01
	PORTD.DIRSET=PIN6_bm;
 144:	c1 83       	std	Z+1, r28	; 0x01
	PORTD.DIRSET=PIN7_bm;
 146:	01 83       	std	Z+1, r16	; 0x01
	
	PORTD.OUTCLR=PIN4_bm;
 148:	f6 82       	std	Z+6, r15	; 0x06
	PORTD.OUTCLR=PIN5_bm;
 14a:	d6 83       	std	Z+6, r29	; 0x06
	PORTD.OUTCLR=PIN6_bm;
 14c:	c6 83       	std	Z+6, r28	; 0x06
	PORTD.OUTCLR=PIN7_bm;
 14e:	06 83       	std	Z+6, r16	; 0x06
	
	
	// setup input pins 
	
	
	PORTD.DIRCLR =  PIN0_bm;
 150:	12 83       	std	Z+2, r17	; 0x02
	PORTD.DIRCLR =  PIN1_bm;
 152:	82 e0       	ldi	r24, 0x02	; 2
 154:	82 83       	std	Z+2, r24	; 0x02
	PORTD.DIRCLR =  PIN2_bm;
 156:	e2 82       	std	Z+2, r14	; 0x02
	PORTD.DIRCLR =  PIN3_bm;
 158:	88 e0       	ldi	r24, 0x08	; 8
 15a:	82 83       	std	Z+2, r24	; 0x02
	
	PORTD.PIN0CTRL= PORT_PULLUPEN_bm;
 15c:	80 8b       	std	Z+16, r24	; 0x10
	PORTD.PIN1CTRL= PORT_PULLUPEN_bm;
 15e:	81 8b       	std	Z+17, r24	; 0x11
	PORTD.PIN2CTRL= PORT_PULLUPEN_bm;
 160:	82 8b       	std	Z+18, r24	; 0x12
	PORTD.PIN3CTRL= PORT_PULLUPEN_bm;
 162:	83 8b       	std	Z+19, r24	; 0x13
	printString("Starting\n");
 164:	8c ed       	ldi	r24, 0xDC	; 220
 166:	96 e4       	ldi	r25, 0x46	; 70
 168:	0e 94 0e 01 	call	0x21c	; 0x21c <printString>
	
		

	system_init();
 16c:	0e 94 57 03 	call	0x6ae	; 0x6ae <system_init>
}
 170:	df 91       	pop	r29
 172:	cf 91       	pop	r28
 174:	1f 91       	pop	r17
 176:	0f 91       	pop	r16
 178:	ff 90       	pop	r15
 17a:	ef 90       	pop	r14
 17c:	08 95       	ret

0000017e <parseNumber>:
 *
 * Created: 17-Jan-20 8:26:21 PM
 *  Author: MatejG
 */ 

	char  parseNumber( int row, int column){
 17e:	cf 93       	push	r28
 180:	df 93       	push	r29
 182:	cd b7       	in	r28, 0x3d	; 61
 184:	de b7       	in	r29, 0x3e	; 62
 186:	60 97       	sbiw	r28, 0x10	; 16
 188:	cd bf       	out	0x3d, r28	; 61
 18a:	de bf       	out	0x3e, r29	; 62
		char array[4][4] = {{'1','2','3','A'},{'4','5','6','B'},{'7','8','9','C'},
 18c:	20 e1       	ldi	r18, 0x10	; 16
 18e:	ec ec       	ldi	r30, 0xCC	; 204
 190:	f6 e4       	ldi	r31, 0x46	; 70
 192:	de 01       	movw	r26, r28
 194:	11 96       	adiw	r26, 0x01	; 1
 196:	01 90       	ld	r0, Z+
 198:	0d 92       	st	X+, r0
 19a:	2a 95       	dec	r18
 19c:	e1 f7       	brne	.-8      	; 0x196 <parseNumber+0x18>
		{'*','0','#','D'}};
		char rez='E';
		
		if( row <= 4  || column <= 4)  rez= array[row-1][column-1];
 19e:	85 30       	cpi	r24, 0x05	; 5
 1a0:	91 05       	cpc	r25, r1
 1a2:	1c f0       	brlt	.+6      	; 0x1aa <parseNumber+0x2c>
 1a4:	65 30       	cpi	r22, 0x05	; 5
 1a6:	71 05       	cpc	r23, r1
 1a8:	8c f4       	brge	.+34     	; 0x1cc <parseNumber+0x4e>
 1aa:	01 97       	sbiw	r24, 0x01	; 1
 1ac:	88 0f       	add	r24, r24
 1ae:	99 1f       	adc	r25, r25
 1b0:	88 0f       	add	r24, r24
 1b2:	99 1f       	adc	r25, r25
 1b4:	21 e0       	ldi	r18, 0x01	; 1
 1b6:	30 e0       	ldi	r19, 0x00	; 0
 1b8:	2c 0f       	add	r18, r28
 1ba:	3d 1f       	adc	r19, r29
 1bc:	82 0f       	add	r24, r18
 1be:	93 1f       	adc	r25, r19
 1c0:	68 0f       	add	r22, r24
 1c2:	79 1f       	adc	r23, r25
 1c4:	fb 01       	movw	r30, r22
 1c6:	31 97       	sbiw	r30, 0x01	; 1
 1c8:	80 81       	ld	r24, Z
 1ca:	01 c0       	rjmp	.+2      	; 0x1ce <parseNumber+0x50>
 */ 

	char  parseNumber( int row, int column){
		char array[4][4] = {{'1','2','3','A'},{'4','5','6','B'},{'7','8','9','C'},
		{'*','0','#','D'}};
		char rez='E';
 1cc:	85 e4       	ldi	r24, 0x45	; 69
		
		if( row <= 4  || column <= 4)  rez= array[row-1][column-1];

		return rez;
	
	}
 1ce:	60 96       	adiw	r28, 0x10	; 16
 1d0:	cd bf       	out	0x3d, r28	; 61
 1d2:	de bf       	out	0x3e, r29	; 62
 1d4:	df 91       	pop	r29
 1d6:	cf 91       	pop	r28
 1d8:	08 95       	ret

000001da <uart_init>:
#define BAUDRATE 9600
#define BAUD_FROM_RATE(RATE) ((4UL * (F_CPU))/(RATE))

void uart_init(void)
{
	USART3.BAUD = BAUD_FROM_RATE(BAUDRATE);
 1da:	e0 e6       	ldi	r30, 0x60	; 96
 1dc:	f8 e0       	ldi	r31, 0x08	; 8
 1de:	8c e6       	ldi	r24, 0x6C	; 108
 1e0:	95 e0       	ldi	r25, 0x05	; 5
 1e2:	80 87       	std	Z+8, r24	; 0x08
 1e4:	91 87       	std	Z+9, r25	; 0x09
	USART3.CTRLC =  USART_CHSIZE_8BIT_gc;
 1e6:	83 e0       	ldi	r24, 0x03	; 3
 1e8:	87 83       	std	Z+7, r24	; 0x07
 1ea:	08 95       	ret

000001ec <uart_on>:
}

void uart_on(void)
{
	// Enable TX
	USART3.CTRLB = USART_TXEN_bm;       
 1ec:	80 e4       	ldi	r24, 0x40	; 64
 1ee:	80 93 66 08 	sts	0x0866, r24	; 0x800866 <__TEXT_REGION_LENGTH__+0x7f4866>
	// TX pin to output
	PORTB.DIRSET = (1 << 0);
 1f2:	e0 e2       	ldi	r30, 0x20	; 32
 1f4:	f4 e0       	ldi	r31, 0x04	; 4
 1f6:	81 e0       	ldi	r24, 0x01	; 1
 1f8:	81 83       	std	Z+1, r24	; 0x01
	PORTB.PIN0CTRL = PORT_PULLUPEN_bm;
 1fa:	88 e0       	ldi	r24, 0x08	; 8
 1fc:	80 8b       	std	Z+16, r24	; 0x10
 1fe:	08 95       	ret

00000200 <uart_off>:
}

void uart_off(void)
{
	// Disable TX
	USART3.CTRLB &= ~USART_TXEN_bm;     //onesposobi uart odasiljanje 
 200:	e0 e6       	ldi	r30, 0x60	; 96
 202:	f8 e0       	ldi	r31, 0x08	; 8
 204:	86 81       	ldd	r24, Z+6	; 0x06
 206:	8f 7b       	andi	r24, 0xBF	; 191
 208:	86 83       	std	Z+6, r24	; 0x06
 20a:	08 95       	ret

0000020c <uart_putchar>:
}

void uart_putchar(char c){
	// Wait for space
	while (!(USART3.STATUS & USART_DREIF_bm))  //ispitivanje zastavice dal je poslan bit 
 20c:	e0 e6       	ldi	r30, 0x60	; 96
 20e:	f8 e0       	ldi	r31, 0x08	; 8
 210:	94 81       	ldd	r25, Z+4	; 0x04
 212:	95 ff       	sbrs	r25, 5
 214:	fd cf       	rjmp	.-6      	; 0x210 <uart_putchar+0x4>
	if(c =='/n'){    //konvencija kaze da prije /n ide znak /r 
		USART3.TXDATAL ='/r'; 
		while (!(USART3.STATUS & USART_DREIF_bm));
	}
	
	USART3.TXDATAL = c;   //slanje podatka 
 216:	80 93 62 08 	sts	0x0862, r24	; 0x800862 <__TEXT_REGION_LENGTH__+0x7f4862>
 21a:	08 95       	ret

0000021c <printString>:
}




void printString( char * c){
 21c:	cf 93       	push	r28
 21e:	df 93       	push	r29
 220:	ec 01       	movw	r28, r24
	
	uart_on();
 222:	0e 94 f6 00 	call	0x1ec	; 0x1ec <uart_on>
	while(*c){
 226:	88 81       	ld	r24, Y
 228:	88 23       	and	r24, r24
 22a:	31 f0       	breq	.+12     	; 0x238 <printString+0x1c>
 22c:	21 96       	adiw	r28, 0x01	; 1
		uart_putchar(*(c));
 22e:	0e 94 06 01 	call	0x20c	; 0x20c <uart_putchar>


void printString( char * c){
	
	uart_on();
	while(*c){
 232:	89 91       	ld	r24, Y+
 234:	81 11       	cpse	r24, r1
 236:	fb cf       	rjmp	.-10     	; 0x22e <printString+0x12>
		uart_putchar(*(c));
		c++;
		
	}
	uart_off();
 238:	0e 94 00 01 	call	0x200	; 0x200 <uart_off>
	
}
 23c:	df 91       	pop	r29
 23e:	cf 91       	pop	r28
 240:	08 95       	ret

00000242 <write_chunk>:

void lcd_home(void){
	
	lcd_command(0x02);
	_lcd_x=0;
	_lcd_y=0;
 242:	99 b1       	in	r25, 0x09	; 9
 244:	90 71       	andi	r25, 0x10	; 16
 246:	99 b9       	out	0x09, r25	; 9
 248:	99 b1       	in	r25, 0x09	; 9
 24a:	90 62       	ori	r25, 0x20	; 32
 24c:	89 2b       	or	r24, r25
 24e:	89 b9       	out	0x09, r24	; 9
 250:	00 c0       	rjmp	.+0      	; 0x252 <write_chunk+0x10>
 252:	00 c0       	rjmp	.+0      	; 0x254 <write_chunk+0x12>
 254:	00 c0       	rjmp	.+0      	; 0x256 <write_chunk+0x14>
 256:	00 c0       	rjmp	.+0      	; 0x258 <write_chunk+0x16>
 258:	4d 98       	cbi	0x09, 5	; 9
 25a:	08 95       	ret

0000025c <lcd_data>:
 25c:	cf 93       	push	r28
 25e:	c8 2f       	mov	r28, r24
 260:	4c 9a       	sbi	0x09, 4	; 9
 262:	82 95       	swap	r24
 264:	8f 70       	andi	r24, 0x0F	; 15
 266:	0e 94 21 01 	call	0x242	; 0x242 <write_chunk>
 26a:	8c 2f       	mov	r24, r28
 26c:	8f 70       	andi	r24, 0x0F	; 15
 26e:	0e 94 21 01 	call	0x242	; 0x242 <write_chunk>
 272:	82 e3       	ldi	r24, 0x32	; 50
 274:	00 c0       	rjmp	.+0      	; 0x276 <lcd_data+0x1a>
 276:	00 c0       	rjmp	.+0      	; 0x278 <lcd_data+0x1c>
 278:	81 50       	subi	r24, 0x01	; 1
 27a:	e1 f7       	brne	.-8      	; 0x274 <lcd_data+0x18>
 27c:	cf 91       	pop	r28
 27e:	08 95       	ret

00000280 <lcd_command>:
 280:	cf 93       	push	r28
 282:	c8 2f       	mov	r28, r24
 284:	4c 98       	cbi	0x09, 4	; 9
 286:	82 95       	swap	r24
 288:	8f 70       	andi	r24, 0x0F	; 15
 28a:	0e 94 21 01 	call	0x242	; 0x242 <write_chunk>
 28e:	8c 2f       	mov	r24, r28
 290:	8f 70       	andi	r24, 0x0F	; 15
 292:	0e 94 21 01 	call	0x242	; 0x242 <write_chunk>
 296:	82 e3       	ldi	r24, 0x32	; 50
 298:	00 c0       	rjmp	.+0      	; 0x29a <lcd_command+0x1a>
 29a:	00 c0       	rjmp	.+0      	; 0x29c <lcd_command+0x1c>
 29c:	81 50       	subi	r24, 0x01	; 1
 29e:	e1 f7       	brne	.-8      	; 0x298 <lcd_command+0x18>
 2a0:	c3 30       	cpi	r28, 0x03	; 3
 2a2:	50 f4       	brcc	.+20     	; 0x2b8 <lcd_command+0x38>
 2a4:	81 e4       	ldi	r24, 0x41	; 65
 2a6:	93 e0       	ldi	r25, 0x03	; 3
 2a8:	01 97       	sbiw	r24, 0x01	; 1
 2aa:	f1 f7       	brne	.-4      	; 0x2a8 <lcd_command+0x28>
 2ac:	00 00       	nop
 2ae:	81 e4       	ldi	r24, 0x41	; 65
 2b0:	93 e0       	ldi	r25, 0x03	; 3
 2b2:	01 97       	sbiw	r24, 0x01	; 1
 2b4:	f1 f7       	brne	.-4      	; 0x2b2 <lcd_command+0x32>
 2b6:	00 00       	nop
 2b8:	cf 91       	pop	r28
 2ba:	08 95       	ret

000002bc <move_cursor_xy>:
 2bc:	cf 93       	push	r28
 2be:	81 31       	cpi	r24, 0x11	; 17
 2c0:	c0 f4       	brcc	.+48     	; 0x2f2 <move_cursor_xy+0x36>
 2c2:	c8 2f       	mov	r28, r24
 2c4:	66 23       	and	r22, r22
 2c6:	19 f0       	breq	.+6      	; 0x2ce <move_cursor_xy+0x12>
 2c8:	61 30       	cpi	r22, 0x01	; 1
 2ca:	49 f0       	breq	.+18     	; 0x2de <move_cursor_xy+0x22>
 2cc:	12 c0       	rjmp	.+36     	; 0x2f2 <move_cursor_xy+0x36>
 2ce:	80 68       	ori	r24, 0x80	; 128
 2d0:	0e 94 40 01 	call	0x280	; 0x280 <lcd_command>
 2d4:	c0 93 00 28 	sts	0x2800, r28	; 0x802800 <__DATA_REGION_ORIGIN__>
 2d8:	10 92 01 28 	sts	0x2801, r1	; 0x802801 <_lcd_y>
 2dc:	0a c0       	rjmp	.+20     	; 0x2f2 <move_cursor_xy+0x36>
 2de:	88 e2       	ldi	r24, 0x28	; 40
 2e0:	8c 0f       	add	r24, r28
 2e2:	80 68       	ori	r24, 0x80	; 128
 2e4:	0e 94 40 01 	call	0x280	; 0x280 <lcd_command>
 2e8:	c0 93 00 28 	sts	0x2800, r28	; 0x802800 <__DATA_REGION_ORIGIN__>
 2ec:	81 e0       	ldi	r24, 0x01	; 1
 2ee:	80 93 01 28 	sts	0x2801, r24	; 0x802801 <_lcd_y>
 2f2:	cf 91       	pop	r28
 2f4:	08 95       	ret

000002f6 <lcd_putc>:
}

void lcd_putc(char c){
	
	if (c == '\n')
 2f6:	8a 30       	cpi	r24, 0x0A	; 10
 2f8:	51 f4       	brne	.+20     	; 0x30e <lcd_putc+0x18>
	{	
		move_cursor_xy(0,(++_lcd_y)%2);
 2fa:	60 91 01 28 	lds	r22, 0x2801	; 0x802801 <_lcd_y>
 2fe:	6f 5f       	subi	r22, 0xFF	; 255
 300:	60 93 01 28 	sts	0x2801, r22	; 0x802801 <_lcd_y>
 304:	61 70       	andi	r22, 0x01	; 1
 306:	80 e0       	ldi	r24, 0x00	; 0
 308:	0e 94 5e 01 	call	0x2bc	; 0x2bc <move_cursor_xy>
	}
	if (c != '\n') {
		++_lcd_x;
		lcd_data(c);
	}
}
 30c:	08 95       	ret
	if (c == '\n')
	{	
		move_cursor_xy(0,(++_lcd_y)%2);
	}
	if (c != '\n') {
		++_lcd_x;
 30e:	90 91 00 28 	lds	r25, 0x2800	; 0x802800 <__DATA_REGION_ORIGIN__>
 312:	9f 5f       	subi	r25, 0xFF	; 255
 314:	90 93 00 28 	sts	0x2800, r25	; 0x802800 <__DATA_REGION_ORIGIN__>
		lcd_data(c);
 318:	0e 94 2e 01 	call	0x25c	; 0x25c <lcd_data>
 31c:	08 95       	ret

0000031e <lcd_writeString>:
	}
}

void lcd_writeString(const char *str)
{
 31e:	cf 93       	push	r28
 320:	df 93       	push	r29
 322:	ec 01       	movw	r28, r24
	while (*str) lcd_putc(*str++);
 324:	88 81       	ld	r24, Y
 326:	88 23       	and	r24, r24
 328:	31 f0       	breq	.+12     	; 0x336 <lcd_writeString+0x18>
 32a:	21 96       	adiw	r28, 0x01	; 1
 32c:	0e 94 7b 01 	call	0x2f6	; 0x2f6 <lcd_putc>
 330:	89 91       	ld	r24, Y+
 332:	81 11       	cpse	r24, r1
 334:	fb cf       	rjmp	.-10     	; 0x32c <lcd_writeString+0xe>
}
 336:	df 91       	pop	r29
 338:	cf 91       	pop	r28
 33a:	08 95       	ret

0000033c <lcd_init>:


void lcd_init(){
 33c:	ef 92       	push	r14
 33e:	ff 92       	push	r15
 340:	0f 93       	push	r16
 342:	1f 93       	push	r17
 344:	cf 93       	push	r28
 346:	df 93       	push	r29
 348:	00 d0       	rcall	.+0      	; 0x34a <lcd_init+0xe>
 34a:	00 d0       	rcall	.+0      	; 0x34c <lcd_init+0x10>
 34c:	cd b7       	in	r28, 0x3d	; 61
 34e:	de b7       	in	r29, 0x3e	; 62
	
	LCD_DIR = 0xFF;
 350:	8f ef       	ldi	r24, 0xFF	; 255
 352:	88 b9       	out	0x08, r24	; 8
	LCD_PORT = 0;                   //set operating mode, cursor settings, cursor shift settings and clear screen
 354:	19 b8       	out	0x09, r1	; 9
	unsigned char init_sequence[] = { 0x24, 0x0E, 0x06, 0x01 };     //list of commands to configure the display
 356:	84 e2       	ldi	r24, 0x24	; 36
 358:	89 83       	std	Y+1, r24	; 0x01
 35a:	8e e0       	ldi	r24, 0x0E	; 14
 35c:	8a 83       	std	Y+2, r24	; 0x02
 35e:	86 e0       	ldi	r24, 0x06	; 6
 360:	8b 83       	std	Y+3, r24	; 0x03
 362:	81 e0       	ldi	r24, 0x01	; 1
 364:	8c 83       	std	Y+4, r24	; 0x04
	_lcd_x=0;
 366:	10 92 00 28 	sts	0x2800, r1	; 0x802800 <__DATA_REGION_ORIGIN__>
	_lcd_y=0;
 36a:	10 92 01 28 	sts	0x2801, r1	; 0x802801 <_lcd_y>
	#else
		//round up by default
		__ticks_dc = (uint32_t)(ceil(fabs(__tmp)));
	#endif

	__builtin_avr_delay_cycles(__ticks_dc);
 36e:	87 ea       	ldi	r24, 0xA7	; 167
 370:	91 e6       	ldi	r25, 0x61	; 97
 372:	01 97       	sbiw	r24, 0x01	; 1
 374:	f1 f7       	brne	.-4      	; 0x372 <lcd_init+0x36>
 376:	00 c0       	rjmp	.+0      	; 0x378 <lcd_init+0x3c>
 378:	00 00       	nop
	_delay_ms(30);    
	lcd_command(0x30);
 37a:	80 e3       	ldi	r24, 0x30	; 48
 37c:	0e 94 40 01 	call	0x280	; 0x280 <lcd_command>
 380:	e6 e4       	ldi	r30, 0x46	; 70
 382:	f0 e1       	ldi	r31, 0x10	; 16
 384:	31 97       	sbiw	r30, 0x01	; 1
 386:	f1 f7       	brne	.-4      	; 0x384 <lcd_init+0x48>
 388:	00 c0       	rjmp	.+0      	; 0x38a <lcd_init+0x4e>
	_delay_ms(5);
	lcd_command(0x30);
 38a:	80 e3       	ldi	r24, 0x30	; 48
 38c:	0e 94 40 01 	call	0x280	; 0x280 <lcd_command>
	#else
		//round up by default
		__ticks_dc = (uint32_t)(ceil(fabs(__tmp)));
	#endif

	__builtin_avr_delay_cycles(__ticks_dc);
 390:	ff e6       	ldi	r31, 0x6F	; 111
 392:	fa 95       	dec	r31
 394:	f1 f7       	brne	.-4      	; 0x392 <lcd_init+0x56>
 396:	00 00       	nop
	_delay_us(100);
	lcd_command(0x30);
 398:	80 e3       	ldi	r24, 0x30	; 48
 39a:	0e 94 40 01 	call	0x280	; 0x280 <lcd_command>
 39e:	87 e3       	ldi	r24, 0x37	; 55
 3a0:	8a 95       	dec	r24
 3a2:	f1 f7       	brne	.-4      	; 0x3a0 <lcd_init+0x64>
 3a4:	00 c0       	rjmp	.+0      	; 0x3a6 <lcd_init+0x6a>
	_delay_us(50);
	lcd_command(0x20);
 3a6:	80 e2       	ldi	r24, 0x20	; 32
 3a8:	0e 94 40 01 	call	0x280	; 0x280 <lcd_command>
 3ac:	97 e3       	ldi	r25, 0x37	; 55
 3ae:	9a 95       	dec	r25
 3b0:	f1 f7       	brne	.-4      	; 0x3ae <lcd_init+0x72>
 3b2:	00 c0       	rjmp	.+0      	; 0x3b4 <lcd_init+0x78>
	_delay_us(50);
	lcd_command(0x20);   
 3b4:	80 e2       	ldi	r24, 0x20	; 32
 3b6:	0e 94 40 01 	call	0x280	; 0x280 <lcd_command>
 3ba:	8e 01       	movw	r16, r28
 3bc:	0f 5f       	subi	r16, 0xFF	; 255
 3be:	1f 4f       	sbci	r17, 0xFF	; 255
 3c0:	7e 01       	movw	r14, r28
 3c2:	e5 e0       	ldi	r30, 0x05	; 5
 3c4:	ee 0e       	add	r14, r30
 3c6:	f1 1c       	adc	r15, r1
	for (unsigned  char i =0; i<sizeof(init_sequence);i++)
		lcd_command(init_sequence[i]);
 3c8:	f8 01       	movw	r30, r16
 3ca:	81 91       	ld	r24, Z+
 3cc:	8f 01       	movw	r16, r30
 3ce:	0e 94 40 01 	call	0x280	; 0x280 <lcd_command>
	lcd_command(0x30);
	_delay_us(50);
	lcd_command(0x20);
	_delay_us(50);
	lcd_command(0x20);   
	for (unsigned  char i =0; i<sizeof(init_sequence);i++)
 3d2:	0e 15       	cp	r16, r14
 3d4:	1f 05       	cpc	r17, r15
 3d6:	c1 f7       	brne	.-16     	; 0x3c8 <lcd_init+0x8c>
		lcd_command(init_sequence[i]);
	
 3d8:	24 96       	adiw	r28, 0x04	; 4
 3da:	cd bf       	out	0x3d, r28	; 61
 3dc:	de bf       	out	0x3e, r29	; 62
 3de:	df 91       	pop	r29
 3e0:	cf 91       	pop	r28
 3e2:	1f 91       	pop	r17
 3e4:	0f 91       	pop	r16
 3e6:	ff 90       	pop	r15
 3e8:	ef 90       	pop	r14
 3ea:	08 95       	ret

000003ec <main>:



int main(void)
{
    lastColumn=-1;   
 3ec:	8f ef       	ldi	r24, 0xFF	; 255
 3ee:	9f ef       	ldi	r25, 0xFF	; 255
 3f0:	80 93 03 28 	sts	0x2803, r24	; 0x802803 <lastColumn>
 3f4:	90 93 04 28 	sts	0x2804, r25	; 0x802804 <lastColumn+0x1>
	button = 'K';
 3f8:	8b e4       	ldi	r24, 0x4B	; 75
 3fa:	80 93 02 28 	sts	0x2802, r24	; 0x802802 <button>
		/* Initializes MCU, drivers and middle ware */
	atmel_start_init();
 3fe:	0e 94 6f 00 	call	0xde	; 0xde <atmel_start_init>
	
	sei();
 402:	78 94       	sei
	TCA0.SINGLE.CTRLA |= 1; //activate timer 
 404:	e0 e0       	ldi	r30, 0x00	; 0
 406:	fa e0       	ldi	r31, 0x0A	; 10
 408:	80 81       	ld	r24, Z
 40a:	81 60       	ori	r24, 0x01	; 1
 40c:	80 83       	st	Z, r24
	lcd_init();
 40e:	0e 94 9e 01 	call	0x33c	; 0x33c <lcd_init>
	lcd_writeString("123456789Hz");
 412:	86 ee       	ldi	r24, 0xE6	; 230
 414:	96 e4       	ldi	r25, 0x46	; 70
 416:	0e 94 8f 01 	call	0x31e	; 0x31e <lcd_writeString>
	
	/* Replace with your application code */
	while (1) {
		while(button =='K');                         //wait until a button is pressed 
		while(!(PORTD.IN & (1<<lastColumn)));  //while not let go 
 41a:	c0 e6       	ldi	r28, 0x60	; 96
 41c:	d4 e0       	ldi	r29, 0x04	; 4
				break;
			
			default:
				lcd_putc(button);	
		}
		button='K';                //reset the key 
 41e:	0f 2e       	mov	r0, r31
 420:	fb e4       	ldi	r31, 0x4B	; 75
 422:	ff 2e       	mov	r15, r31
 424:	f0 2d       	mov	r31, r0
		lastColumn= -1;
 426:	0f ef       	ldi	r16, 0xFF	; 255
 428:	1f ef       	ldi	r17, 0xFF	; 255
	lcd_init();
	lcd_writeString("123456789Hz");
	
	/* Replace with your application code */
	while (1) {
		while(button =='K');                         //wait until a button is pressed 
 42a:	80 91 02 28 	lds	r24, 0x2802	; 0x802802 <button>
 42e:	8b 34       	cpi	r24, 0x4B	; 75
 430:	e1 f3       	breq	.-8      	; 0x42a <__LOCK_REGION_LENGTH__+0x2a>
		while(!(PORTD.IN & (1<<lastColumn)));  //while not let go 
 432:	88 85       	ldd	r24, Y+8	; 0x08
 434:	20 91 03 28 	lds	r18, 0x2803	; 0x802803 <lastColumn>
 438:	30 91 04 28 	lds	r19, 0x2804	; 0x802804 <lastColumn+0x1>
 43c:	90 e0       	ldi	r25, 0x00	; 0
 43e:	02 c0       	rjmp	.+4      	; 0x444 <__LOCK_REGION_LENGTH__+0x44>
 440:	95 95       	asr	r25
 442:	87 95       	ror	r24
 444:	2a 95       	dec	r18
 446:	e2 f7       	brpl	.-8      	; 0x440 <__LOCK_REGION_LENGTH__+0x40>
 448:	80 ff       	sbrs	r24, 0
 44a:	f3 cf       	rjmp	.-26     	; 0x432 <__LOCK_REGION_LENGTH__+0x32>
		switch(button){
 44c:	80 91 02 28 	lds	r24, 0x2802	; 0x802802 <button>
 450:	81 34       	cpi	r24, 0x41	; 65
 452:	a1 f0       	breq	.+40     	; 0x47c <__LOCK_REGION_LENGTH__+0x7c>
 454:	28 f4       	brcc	.+10     	; 0x460 <__LOCK_REGION_LENGTH__+0x60>
 456:	83 32       	cpi	r24, 0x23	; 35
 458:	69 f0       	breq	.+26     	; 0x474 <__LOCK_REGION_LENGTH__+0x74>
 45a:	8a 32       	cpi	r24, 0x2A	; 42
 45c:	39 f0       	breq	.+14     	; 0x46c <__LOCK_REGION_LENGTH__+0x6c>
 45e:	21 c0       	rjmp	.+66     	; 0x4a2 <__LOCK_REGION_LENGTH__+0xa2>
 460:	83 34       	cpi	r24, 0x43	; 67
 462:	b1 f0       	breq	.+44     	; 0x490 <__LOCK_REGION_LENGTH__+0x90>
 464:	80 f0       	brcs	.+32     	; 0x486 <__LOCK_REGION_LENGTH__+0x86>
 466:	84 34       	cpi	r24, 0x44	; 68
 468:	c1 f0       	breq	.+48     	; 0x49a <__LOCK_REGION_LENGTH__+0x9a>
 46a:	1b c0       	rjmp	.+54     	; 0x4a2 <__LOCK_REGION_LENGTH__+0xa2>
			case '*':
				lcd_command(LCD_MOVE_CURSOR_LEFT);     
 46c:	80 e1       	ldi	r24, 0x10	; 16
 46e:	0e 94 40 01 	call	0x280	; 0x280 <lcd_command>
				break;
 472:	1b c0       	rjmp	.+54     	; 0x4aa <__LOCK_REGION_LENGTH__+0xaa>
			case '#':
				lcd_command(LCD_MOVE_CURSOR_RIGHT);
 474:	84 e1       	ldi	r24, 0x14	; 20
 476:	0e 94 40 01 	call	0x280	; 0x280 <lcd_command>
				break;
 47a:	17 c0       	rjmp	.+46     	; 0x4aa <__LOCK_REGION_LENGTH__+0xaa>
			case 'A':                                 //gigaherz
				move_cursor_xy(0,0);
 47c:	60 e0       	ldi	r22, 0x00	; 0
 47e:	80 e0       	ldi	r24, 0x00	; 0
 480:	0e 94 5e 01 	call	0x2bc	; 0x2bc <move_cursor_xy>
				break;
 484:	12 c0       	rjmp	.+36     	; 0x4aa <__LOCK_REGION_LENGTH__+0xaa>
			case 'B':
				move_cursor_xy(3,0);           //megaherz
 486:	60 e0       	ldi	r22, 0x00	; 0
 488:	83 e0       	ldi	r24, 0x03	; 3
 48a:	0e 94 5e 01 	call	0x2bc	; 0x2bc <move_cursor_xy>
				break;
 48e:	0d c0       	rjmp	.+26     	; 0x4aa <__LOCK_REGION_LENGTH__+0xaa>
			case 'C':
				move_cursor_xy(6,0);           //kiloherz
 490:	60 e0       	ldi	r22, 0x00	; 0
 492:	86 e0       	ldi	r24, 0x06	; 6
 494:	0e 94 5e 01 	call	0x2bc	; 0x2bc <move_cursor_xy>
				break;
 498:	08 c0       	rjmp	.+16     	; 0x4aa <__LOCK_REGION_LENGTH__+0xaa>
			case 'D':
				lcd_putc(' ');       //delete
 49a:	80 e2       	ldi	r24, 0x20	; 32
 49c:	0e 94 7b 01 	call	0x2f6	; 0x2f6 <lcd_putc>
				break;
 4a0:	04 c0       	rjmp	.+8      	; 0x4aa <__LOCK_REGION_LENGTH__+0xaa>
			
			default:
				lcd_putc(button);	
 4a2:	80 91 02 28 	lds	r24, 0x2802	; 0x802802 <button>
 4a6:	0e 94 7b 01 	call	0x2f6	; 0x2f6 <lcd_putc>
		}
		button='K';                //reset the key 
 4aa:	f0 92 02 28 	sts	0x2802, r15	; 0x802802 <button>
		lastColumn= -1;
 4ae:	00 93 03 28 	sts	0x2803, r16	; 0x802803 <lastColumn>
 4b2:	10 93 04 28 	sts	0x2804, r17	; 0x802804 <lastColumn+0x1>
	}
 4b6:	b9 cf       	rjmp	.-142    	; 0x42a <__LOCK_REGION_LENGTH__+0x2a>

000004b8 <__vector_7>:
	
}



ISR(TCA0_OVF_vect){  
 4b8:	1f 92       	push	r1
 4ba:	0f 92       	push	r0
 4bc:	0f b6       	in	r0, 0x3f	; 63
 4be:	0f 92       	push	r0
 4c0:	11 24       	eor	r1, r1
 4c2:	0f 93       	push	r16
 4c4:	1f 93       	push	r17
 4c6:	2f 93       	push	r18
 4c8:	3f 93       	push	r19
 4ca:	4f 93       	push	r20
 4cc:	5f 93       	push	r21
 4ce:	6f 93       	push	r22
 4d0:	7f 93       	push	r23
 4d2:	8f 93       	push	r24
 4d4:	9f 93       	push	r25
 4d6:	af 93       	push	r26
 4d8:	bf 93       	push	r27
 4da:	cf 93       	push	r28
 4dc:	df 93       	push	r29
 4de:	ef 93       	push	r30
 4e0:	ff 93       	push	r31
	uint8_t column ;
	uint8_t  row=10;
	uint8_t i;
	uint8_t intflags = TCA0.SINGLE.INTFLAGS;
 4e2:	e0 e0       	ldi	r30, 0x00	; 0
 4e4:	fa e0       	ldi	r31, 0x0A	; 10
 4e6:	83 85       	ldd	r24, Z+11	; 0x0b
	TCA0.SINGLE.INTFLAGS= intflags;
 4e8:	83 87       	std	Z+11, r24	; 0x0b
	

	
	
	for(i=0; i<4; i++) {   //find out which column is pressed
		if(!(PORTD.IN & (1<<i)) ) {
 4ea:	80 91 68 04 	lds	r24, 0x0468	; 0x800468 <__TEXT_REGION_LENGTH__+0x7f4468>
 4ee:	80 ff       	sbrs	r24, 0
 4f0:	18 c0       	rjmp	.+48     	; 0x522 <__vector_7+0x6a>
 4f2:	80 91 68 04 	lds	r24, 0x0468	; 0x800468 <__TEXT_REGION_LENGTH__+0x7f4468>
 4f6:	81 ff       	sbrs	r24, 1
 4f8:	0c c0       	rjmp	.+24     	; 0x512 <__vector_7+0x5a>
 4fa:	80 91 68 04 	lds	r24, 0x0468	; 0x800468 <__TEXT_REGION_LENGTH__+0x7f4468>
 4fe:	82 ff       	sbrs	r24, 2
 500:	0c c0       	rjmp	.+24     	; 0x51a <__vector_7+0x62>
 502:	80 91 68 04 	lds	r24, 0x0468	; 0x800468 <__TEXT_REGION_LENGTH__+0x7f4468>
 506:	83 fd       	sbrc	r24, 3
 508:	23 c0       	rjmp	.+70     	; 0x550 <__vector_7+0x98>
	
	

	
	
	for(i=0; i<4; i++) {   //find out which column is pressed
 50a:	63 e0       	ldi	r22, 0x03	; 3
		if(!(PORTD.IN & (1<<i)) ) {
 50c:	83 e0       	ldi	r24, 0x03	; 3
 50e:	90 e0       	ldi	r25, 0x00	; 0
 510:	0b c0       	rjmp	.+22     	; 0x528 <__vector_7+0x70>
	
	

	
	
	for(i=0; i<4; i++) {   //find out which column is pressed
 512:	61 e0       	ldi	r22, 0x01	; 1
		if(!(PORTD.IN & (1<<i)) ) {
 514:	81 e0       	ldi	r24, 0x01	; 1
 516:	90 e0       	ldi	r25, 0x00	; 0
 518:	07 c0       	rjmp	.+14     	; 0x528 <__vector_7+0x70>
	
	

	
	
	for(i=0; i<4; i++) {   //find out which column is pressed
 51a:	62 e0       	ldi	r22, 0x02	; 2
		if(!(PORTD.IN & (1<<i)) ) {
 51c:	82 e0       	ldi	r24, 0x02	; 2
 51e:	90 e0       	ldi	r25, 0x00	; 0
 520:	03 c0       	rjmp	.+6      	; 0x528 <__vector_7+0x70>
 522:	80 e0       	ldi	r24, 0x00	; 0
 524:	90 e0       	ldi	r25, 0x00	; 0
	
	

	
	
	for(i=0; i<4; i++) {   //find out which column is pressed
 526:	60 e0       	ldi	r22, 0x00	; 0
		if(!(PORTD.IN & (1<<i)) ) {
			if ( lastColumn==i ){  //second iteration found the same column 
 528:	20 91 03 28 	lds	r18, 0x2803	; 0x802803 <lastColumn>
 52c:	30 91 04 28 	lds	r19, 0x2804	; 0x802804 <lastColumn+0x1>
 530:	28 17       	cp	r18, r24
 532:	39 07       	cpc	r19, r25
 534:	41 f4       	brne	.+16     	; 0x546 <__vector_7+0x8e>
				column = i+1;
 536:	6f 5f       	subi	r22, 0xFF	; 255
 538:	44 e0       	ldi	r20, 0x04	; 4
 53a:	50 e0       	ldi	r21, 0x00	; 0
	
	
	
	
	for( i=4; i<8 ;i++){	 //go through the rows
		PORTD.OUTSET = (1<<i);   //set output to 1 to find the row   
 53c:	01 e0       	ldi	r16, 0x01	; 1
 53e:	10 e0       	ldi	r17, 0x00	; 0
 540:	a0 e6       	ldi	r26, 0x60	; 96
 542:	b4 e0       	ldi	r27, 0x04	; 4
 544:	0c c0       	rjmp	.+24     	; 0x55e <__vector_7+0xa6>
			if ( lastColumn==i ){  //second iteration found the same column 
				column = i+1;
				break;
			}
			else {
				lastColumn=i;     //first appearance of a button 
 546:	80 93 03 28 	sts	0x2803, r24	; 0x802803 <lastColumn>
 54a:	90 93 04 28 	sts	0x2804, r25	; 0x802804 <lastColumn+0x1>
				return;
 54e:	36 c0       	rjmp	.+108    	; 0x5bc <__vector_7+0x104>
				
			}
		}
		if(i==3){
			lastColumn= -1;    //if no button is pressed 
 550:	8f ef       	ldi	r24, 0xFF	; 255
 552:	9f ef       	ldi	r25, 0xFF	; 255
 554:	80 93 03 28 	sts	0x2803, r24	; 0x802803 <lastColumn>
 558:	90 93 04 28 	sts	0x2804, r25	; 0x802804 <lastColumn+0x1>
			return;   
 55c:	2f c0       	rjmp	.+94     	; 0x5bc <__vector_7+0x104>
 55e:	84 2f       	mov	r24, r20
	
	
	
	
	for( i=4; i<8 ;i++){	 //go through the rows
		PORTD.OUTSET = (1<<i);   //set output to 1 to find the row   
 560:	f8 01       	movw	r30, r16
 562:	04 2e       	mov	r0, r20
 564:	02 c0       	rjmp	.+4      	; 0x56a <__vector_7+0xb2>
 566:	ee 0f       	add	r30, r30
 568:	ff 1f       	adc	r31, r31
 56a:	0a 94       	dec	r0
 56c:	e2 f7       	brpl	.-8      	; 0x566 <__vector_7+0xae>
 56e:	15 96       	adiw	r26, 0x05	; 5
 570:	ec 93       	st	X, r30
 572:	15 97       	sbiw	r26, 0x05	; 5
 574:	00 c0       	rjmp	.+0      	; 0x576 <__vector_7+0xbe>
 576:	00 c0       	rjmp	.+0      	; 0x578 <__vector_7+0xc0>
		_delay_us(1);                  //delay for signal stabilising 
		if(PORTD.IN & (1<<lastColumn)){    //row check 
 578:	18 96       	adiw	r26, 0x08	; 8
 57a:	2c 91       	ld	r18, X
 57c:	18 97       	sbiw	r26, 0x08	; 8
 57e:	c0 91 03 28 	lds	r28, 0x2803	; 0x802803 <lastColumn>
 582:	d0 91 04 28 	lds	r29, 0x2804	; 0x802804 <lastColumn+0x1>
 586:	30 e0       	ldi	r19, 0x00	; 0
 588:	02 c0       	rjmp	.+4      	; 0x58e <__vector_7+0xd6>
 58a:	35 95       	asr	r19
 58c:	27 95       	ror	r18
 58e:	ca 95       	dec	r28
 590:	e2 f7       	brpl	.-8      	; 0x58a <__vector_7+0xd2>
 592:	20 ff       	sbrs	r18, 0
 594:	04 c0       	rjmp	.+8      	; 0x59e <__vector_7+0xe6>
			row = i-3;
 596:	83 50       	subi	r24, 0x03	; 3
			PORTD.OUTCLR = (1<<i);
 598:	e0 93 66 04 	sts	0x0466, r30	; 0x800466 <__TEXT_REGION_LENGTH__+0x7f4466>
			break;
 59c:	09 c0       	rjmp	.+18     	; 0x5b0 <__vector_7+0xf8>
		}
		PORTD.OUTCLR = (1<<i);
 59e:	16 96       	adiw	r26, 0x06	; 6
 5a0:	ec 93       	st	X, r30
 5a2:	16 97       	sbiw	r26, 0x06	; 6
 5a4:	4f 5f       	subi	r20, 0xFF	; 255
 5a6:	5f 4f       	sbci	r21, 0xFF	; 255
	
	
	
	
	
	for( i=4; i<8 ;i++){	 //go through the rows
 5a8:	48 30       	cpi	r20, 0x08	; 8
 5aa:	51 05       	cpc	r21, r1
 5ac:	c1 f6       	brne	.-80     	; 0x55e <__vector_7+0xa6>



ISR(TCA0_OVF_vect){  
	uint8_t column ;
	uint8_t  row=10;
 5ae:	8a e0       	ldi	r24, 0x0A	; 10
		PORTD.OUTCLR = (1<<i);
	}  //end for
	
	
	
	button = parseNumber(row,column);   // find out what button was pressed 	 
 5b0:	70 e0       	ldi	r23, 0x00	; 0
 5b2:	90 e0       	ldi	r25, 0x00	; 0
 5b4:	0e 94 bf 00 	call	0x17e	; 0x17e <parseNumber>
 5b8:	80 93 02 28 	sts	0x2802, r24	; 0x802802 <button>
	return;

	
	
}
 5bc:	ff 91       	pop	r31
 5be:	ef 91       	pop	r30
 5c0:	df 91       	pop	r29
 5c2:	cf 91       	pop	r28
 5c4:	bf 91       	pop	r27
 5c6:	af 91       	pop	r26
 5c8:	9f 91       	pop	r25
 5ca:	8f 91       	pop	r24
 5cc:	7f 91       	pop	r23
 5ce:	6f 91       	pop	r22
 5d0:	5f 91       	pop	r21
 5d2:	4f 91       	pop	r20
 5d4:	3f 91       	pop	r19
 5d6:	2f 91       	pop	r18
 5d8:	1f 91       	pop	r17
 5da:	0f 91       	pop	r16
 5dc:	0f 90       	pop	r0
 5de:	0f be       	out	0x3f, r0	; 63
 5e0:	0f 90       	pop	r0
 5e2:	1f 90       	pop	r1
 5e4:	18 95       	reti

000005e6 <__vector_default>:


ISR(BADISR_vect){
 5e6:	1f 92       	push	r1
 5e8:	0f 92       	push	r0
 5ea:	0f b6       	in	r0, 0x3f	; 63
 5ec:	0f 92       	push	r0
 5ee:	11 24       	eor	r1, r1
 5f0:	2f 93       	push	r18
 5f2:	3f 93       	push	r19
 5f4:	4f 93       	push	r20
 5f6:	5f 93       	push	r21
 5f8:	6f 93       	push	r22
 5fa:	7f 93       	push	r23
 5fc:	8f 93       	push	r24
 5fe:	9f 93       	push	r25
 600:	af 93       	push	r26
 602:	bf 93       	push	r27
 604:	ef 93       	push	r30
 606:	ff 93       	push	r31
	
	
	
	printString("greska");
 608:	82 ef       	ldi	r24, 0xF2	; 242
 60a:	96 e4       	ldi	r25, 0x46	; 70
 60c:	0e 94 0e 01 	call	0x21c	; 0x21c <printString>
	reti();
 610:	18 95       	reti
	
}
 612:	ff 91       	pop	r31
 614:	ef 91       	pop	r30
 616:	bf 91       	pop	r27
 618:	af 91       	pop	r26
 61a:	9f 91       	pop	r25
 61c:	8f 91       	pop	r24
 61e:	7f 91       	pop	r23
 620:	6f 91       	pop	r22
 622:	5f 91       	pop	r21
 624:	4f 91       	pop	r20
 626:	3f 91       	pop	r19
 628:	2f 91       	pop	r18
 62a:	0f 90       	pop	r0
 62c:	0f be       	out	0x3f, r0	; 63
 62e:	0f 90       	pop	r0
 630:	1f 90       	pop	r1
 632:	18 95       	reti

00000634 <BOD_init>:
	//		 | BOD_VLMCFG_BELOW_gc; /* Interrupt when supply goes below VLM level */

	// BOD.VLMCTRLA = BOD_VLMLVL_5ABOVE_gc; /* VLM threshold 5% above BOD level */

	return 0;
}
 634:	80 e0       	ldi	r24, 0x00	; 0
 636:	08 95       	ret

00000638 <CLKCTRL_init>:
	//		 | 0 << CLKCTRL_CLKOUT_bp /* System clock out: disabled */);

	// ccp_write_io((void*)&(CLKCTRL.MCLKLOCK),0 << CLKCTRL_LOCKEN_bp /* lock enable: disabled */);

	return 0;
}
 638:	80 e0       	ldi	r24, 0x00	; 0
 63a:	08 95       	ret

0000063c <CPUINT_init>:
	// CPUINT.LVL0PRI = 0x0 << CPUINT_LVL0PRI_gp; /* Interrupt Level Priority: 0x0 */

	// CPUINT.LVL1VEC = 0x0 << CPUINT_LVL1VEC_gp; /* Interrupt Vector with High Priority: 0x0 */

	return 0;
}
 63c:	80 e0       	ldi	r24, 0x00	; 0
 63e:	08 95       	ret

00000640 <mcu_init>:
#ifdef __cplusplus
extern "C" {
#endif

void mcu_init(void)
{
 640:	e0 e1       	ldi	r30, 0x10	; 16
 642:	f4 e0       	ldi	r31, 0x04	; 4
	 * peripheral if used */

	/* Set all pins to low power mode */

	for (uint8_t i = 0; i < 8; i++) {
		*((uint8_t *)&PORTA + 0x10 + i) |= 1 << PORT_PULLUPEN_bp;
 644:	80 81       	ld	r24, Z
 646:	88 60       	ori	r24, 0x08	; 8
 648:	81 93       	st	Z+, r24
	 * disables all peripherals to save power. Driver shall enable
	 * peripheral if used */

	/* Set all pins to low power mode */

	for (uint8_t i = 0; i < 8; i++) {
 64a:	e8 31       	cpi	r30, 0x18	; 24
 64c:	84 e0       	ldi	r24, 0x04	; 4
 64e:	f8 07       	cpc	r31, r24
 650:	c9 f7       	brne	.-14     	; 0x644 <mcu_init+0x4>
 652:	e0 e3       	ldi	r30, 0x30	; 48
 654:	f4 e0       	ldi	r31, 0x04	; 4
		*((uint8_t *)&PORTA + 0x10 + i) |= 1 << PORT_PULLUPEN_bp;
	}

	for (uint8_t i = 0; i < 8; i++) {
		*((uint8_t *)&PORTB + 0x10 + i) |= 1 << PORT_PULLUPEN_bp;
 656:	80 81       	ld	r24, Z
 658:	88 60       	ori	r24, 0x08	; 8
 65a:	81 93       	st	Z+, r24

	for (uint8_t i = 0; i < 8; i++) {
		*((uint8_t *)&PORTA + 0x10 + i) |= 1 << PORT_PULLUPEN_bp;
	}

	for (uint8_t i = 0; i < 8; i++) {
 65c:	e8 33       	cpi	r30, 0x38	; 56
 65e:	84 e0       	ldi	r24, 0x04	; 4
 660:	f8 07       	cpc	r31, r24
 662:	c9 f7       	brne	.-14     	; 0x656 <mcu_init+0x16>
 664:	e0 e5       	ldi	r30, 0x50	; 80
 666:	f4 e0       	ldi	r31, 0x04	; 4
		*((uint8_t *)&PORTB + 0x10 + i) |= 1 << PORT_PULLUPEN_bp;
	}

	for (uint8_t i = 0; i < 8; i++) {
		*((uint8_t *)&PORTC + 0x10 + i) |= 1 << PORT_PULLUPEN_bp;
 668:	80 81       	ld	r24, Z
 66a:	88 60       	ori	r24, 0x08	; 8
 66c:	81 93       	st	Z+, r24

	for (uint8_t i = 0; i < 8; i++) {
		*((uint8_t *)&PORTB + 0x10 + i) |= 1 << PORT_PULLUPEN_bp;
	}

	for (uint8_t i = 0; i < 8; i++) {
 66e:	e8 35       	cpi	r30, 0x58	; 88
 670:	84 e0       	ldi	r24, 0x04	; 4
 672:	f8 07       	cpc	r31, r24
 674:	c9 f7       	brne	.-14     	; 0x668 <mcu_init+0x28>
 676:	e0 e7       	ldi	r30, 0x70	; 112
 678:	f4 e0       	ldi	r31, 0x04	; 4
		*((uint8_t *)&PORTC + 0x10 + i) |= 1 << PORT_PULLUPEN_bp;
	}

	for (uint8_t i = 0; i < 8; i++) {
		*((uint8_t *)&PORTD + 0x10 + i) |= 1 << PORT_PULLUPEN_bp;
 67a:	80 81       	ld	r24, Z
 67c:	88 60       	ori	r24, 0x08	; 8
 67e:	81 93       	st	Z+, r24

	for (uint8_t i = 0; i < 8; i++) {
		*((uint8_t *)&PORTC + 0x10 + i) |= 1 << PORT_PULLUPEN_bp;
	}

	for (uint8_t i = 0; i < 8; i++) {
 680:	e8 37       	cpi	r30, 0x78	; 120
 682:	84 e0       	ldi	r24, 0x04	; 4
 684:	f8 07       	cpc	r31, r24
 686:	c9 f7       	brne	.-14     	; 0x67a <mcu_init+0x3a>
 688:	e0 e9       	ldi	r30, 0x90	; 144
 68a:	f4 e0       	ldi	r31, 0x04	; 4
		*((uint8_t *)&PORTD + 0x10 + i) |= 1 << PORT_PULLUPEN_bp;
	}

	for (uint8_t i = 0; i < 8; i++) {
		*((uint8_t *)&PORTE + 0x10 + i) |= 1 << PORT_PULLUPEN_bp;
 68c:	80 81       	ld	r24, Z
 68e:	88 60       	ori	r24, 0x08	; 8
 690:	81 93       	st	Z+, r24

	for (uint8_t i = 0; i < 8; i++) {
		*((uint8_t *)&PORTD + 0x10 + i) |= 1 << PORT_PULLUPEN_bp;
	}

	for (uint8_t i = 0; i < 8; i++) {
 692:	e8 39       	cpi	r30, 0x98	; 152
 694:	84 e0       	ldi	r24, 0x04	; 4
 696:	f8 07       	cpc	r31, r24
 698:	c9 f7       	brne	.-14     	; 0x68c <mcu_init+0x4c>
 69a:	e0 eb       	ldi	r30, 0xB0	; 176
 69c:	f4 e0       	ldi	r31, 0x04	; 4
		*((uint8_t *)&PORTE + 0x10 + i) |= 1 << PORT_PULLUPEN_bp;
	}

	for (uint8_t i = 0; i < 8; i++) {
		*((uint8_t *)&PORTF + 0x10 + i) |= 1 << PORT_PULLUPEN_bp;
 69e:	80 81       	ld	r24, Z
 6a0:	88 60       	ori	r24, 0x08	; 8
 6a2:	81 93       	st	Z+, r24

	for (uint8_t i = 0; i < 8; i++) {
		*((uint8_t *)&PORTE + 0x10 + i) |= 1 << PORT_PULLUPEN_bp;
	}

	for (uint8_t i = 0; i < 8; i++) {
 6a4:	e8 3b       	cpi	r30, 0xB8	; 184
 6a6:	84 e0       	ldi	r24, 0x04	; 4
 6a8:	f8 07       	cpc	r31, r24
 6aa:	c9 f7       	brne	.-14     	; 0x69e <mcu_init+0x5e>
		*((uint8_t *)&PORTF + 0x10 + i) |= 1 << PORT_PULLUPEN_bp;
	}
}
 6ac:	08 95       	ret

000006ae <system_init>:
/**
 * \brief System initialization
 */
void system_init()
{
	mcu_init();
 6ae:	0e 94 20 03 	call	0x640	; 0x640 <mcu_init>

	CLKCTRL_init();
 6b2:	0e 94 1c 03 	call	0x638	; 0x638 <CLKCTRL_init>

	CPUINT_init();
 6b6:	0e 94 1e 03 	call	0x63c	; 0x63c <CPUINT_init>

	SLPCTRL_init();
 6ba:	0e 94 62 03 	call	0x6c4	; 0x6c4 <SLPCTRL_init>

	BOD_init();
 6be:	0e 94 1a 03 	call	0x634	; 0x634 <BOD_init>
 6c2:	08 95       	ret

000006c4 <SLPCTRL_init>:

	// SLPCTRL.CTRLA = 0 << SLPCTRL_SEN_bp /* Sleep enable: disabled */
	//		 | SLPCTRL_SMODE_IDLE_gc; /* Idle mode */

	return 0;
}
 6c4:	80 e0       	ldi	r24, 0x00	; 0
 6c6:	08 95       	ret

000006c8 <_exit>:
 6c8:	f8 94       	cli

000006ca <__stop_program>:
 6ca:	ff cf       	rjmp	.-2      	; 0x6ca <__stop_program>
