S00F0000535049546573742E7372656389
S11300000C9450000C946D000C946D000C946D00D5
S11300100C946D000C946D000C946D000C945C02B7
S11300200C946D000C946D000C946D000C946D0098
S11300300C946D000C946D000C946D000C946D0088
S11300400C946D000C946D000C946D000C946D0078
S11300500C946D000C946D000C946D000C946D0068
S11300600C946D000C946D000C946D000C946D0058
S11300700C946D000C946D000C946D000C946D0048
S11300800C946D000C946D000C946D000C946D0038
S11300900C946D000C946D000C946D000C946D0028
S11300A011241FBECFEFCDBFDFE3DEBF18E2A0E017
S11300B0B8E2E9EFF6E002C005900D92A030B10776
S11300C0D9F728E2A0E0B8E201C01D92A530B2073A
S11300D0E1F70E94F6010C9464030C94F302EF928E
S11300E0FF920F931F93CF93DF93E1E0F4E000E8D6
S11300F00083C0E4C083D0E2D09302046894FF2458
S1130100F4F8F082E0ECF8E0808111E0812780834C
S113011080818D27808380818C2780836894EE245E
S1130120E2F8E092C1080E94ED00E0E0FAE08AE023
S1130130808312878DE29AE086A397A3E0E6F4E039
S1130140F182D183C1830183F682D683C683068379
S1130150128382E08283E28288E08283808B818BB7
S1130160828B838B8CED96E40E940E010E945703D0
S1130170DF91CF911F910F91FF90EF900895CF934E
S1130180DF93CDB7DEB76097CDBFDEBF20E1ECECE7
S1130190F6E4DE01119601900D922A95E1F785307F
S11301A091051CF0653071058CF40197880F991F37
S11301B0880F991F21E030E02C0F3D1F820F931F01
S11301C0680F791FFB013197808101C085E4609637
S11301D0CDBFDEBFDF91CF910895E0E6F8E08CE675
S11301E095E08087918783E08783089580E48093F6
S11301F06608E0E2F4E081E0818388E0808B089582
S1130200E0E6F8E086818F7B86830895E0E6F8E0F7
S1130210948195FFFDCF809362080895CF93DF9377
S1130220EC010E94F6008881882331F021960E9417
S1130230060189918111FBCF0E940001DF91CF91CA
S1130240089599B1907199B999B19062892B89B93E
S113025000C000C000C000C04D980895CF93C82FBF
S11302604C9A82958F700E9421018C2F8F700E946E
S1130270210182E300C000C08150E1F7CF910895CD
S1130280CF93C82F4C9882958F700E9421018C2F98
S11302908F700E94210182E300C000C08150E1F709
S11302A0C33050F481E493E00197F1F7000081E456
S11302B093E00197F1F70000CF910895CF93813136
S11302C0C0F4C82F662319F0613049F012C0806869
S11302D00E944001C0930028109201280AC088E2BD
S11302E08C0F80680E944001C093002881E08093B5
S11302F00128CF9108958A3051F4609101286F5FED
S113030060930128617080E00E945E0108959091DD
S113031000289F5F909300280E942E010895CF9398
S1130320DF93EC018881882331F021960E947B01C0
S113033089918111FBCFDF91CF910895EF92FF92C4
S11303400F931F93CF93DF9300D000D0CDB7DEB7C8
S11303508FEF88B919B884E289838EE08A8386E0B6
S11303608B8381E08C83109200281092012887EA05
S113037091E60197F1F700C0000080E30E9440017C
S1130380E6E4F0E13197F1F700C080E30E94400118
S1130390FFE6FA95F1F7000080E30E94400187E34D
S11303A08A95F1F700C080E20E94400197E39A9594
S11303B0F1F700C080E20E9440018E010F5F1F4FE1
S11303C07E01E5E0EE0EF11CF80181918F010E949F
S11303D040010E151F05C1F72496CDBFDEBFDF9186
S11303E0CF911F910F91FF90EF9008958FEF9FEFA2
S11303F080930328909304288BE4809302280E941E
S11304006F007894E0E0FAE08081816080830E944C
S11304109E0186EE96E40E948F01C0E6D4E00F2E82
S1130420FBE4FF2EF02D0FEF1FEF809102288B3499
S1130430E1F38885209103283091042890E002C0DC
S1130440959587952A95E2F780FFF3CF809102284E
S11304508134A1F028F4833269F08A3239F021C062
S11304608334B1F080F08434C1F01BC080E10E9479
S113047040011BC084E10E94400117C060E080E09D
S11304800E945E0112C060E083E00E945E010DC024
S113049060E086E00E945E0108C080E20E947B0169
S11304A004C0809102280E947B01F09202280093EC
S11304B0032810930428B9CF1F920F920FB60F92FE
S11304C011240F931F932F933F934F935F936F9335
S11304D07F938F939F93AF93BF93CF93DF93EF93C8
S11304E0FF93E0E0FAE0838583878091680480FFCE
S11304F018C08091680481FF0CC08091680482FF59
S11305000CC08091680483FD23C063E083E090E025
S11305100BC061E081E090E007C062E082E090E01F
S113052003C080E090E060E020910328309104282B
S11305302817390741F46F5F44E050E001E010E010
S1130540A0E6B4E00CC0809303289093042836C03E
S11305508FEF9FEF80930328909304282FC0842F5C
S1130560F801042E02C0EE0FFF1F0A94E2F715965D
S1130570EC93159700C000C018962C911897C09161
S11305800328D091042830E002C035952795CA95F8
S1130590E2F720FF04C08350E093660409C0169676
S11305A0EC9316974F5F5F4F48305105C1F68AE0D0
S11305B070E090E00E94BF0080930228FF91EF91C9
S11305C0DF91CF91BF91AF919F918F917F916F9167
S11305D05F914F913F912F911F910F910F900FBEFB
S11305E00F901F9018951F920F920FB60F9211241F
S11305F02F933F934F935F936F937F938F939F9327
S1130600AF93BF93EF93FF9382EF96E40E940E01A2
S11306101895FF91EF91BF91AF919F918F917F9129
S11306206F915F914F913F912F910F900FBE0F905B
S11306301F90189580E0089580E0089580E0089563
S1130640E0E1F4E0808188608193E83184E0F80798
S1130650C9F7E0E3F4E0808188608193E83384E0C3
S1130660F807C9F7E0E5F4E0808188608193E83514
S113067084E0F807C9F7E0E7F4E0808188608193BB
S1130680E83784E0F807C9F7E0E9F4E0808188609E
S11306908193E83984E0F807C9F7E0EBF4E080815E
S11306A088608193E83B84E0F807C9F708950E94C5
S11306B020030E941C030E941E030E9462030E94E6
S10F06C01A03089580E00895F894FFCF19
S11306CC3132334134353642373839432A302344B6
S11306DC5374617274696E670A003132333435367F
S11006EC373839487A00677265736B610016
S9030000FC
